{
  "_format": "hh-sol-artifact-1",
  "contractName": "MyNFTToken",
  "sourceName": "contracts/MyNFTToken.sol",
  "abi": [
    {
      "inputs": [
        {
          "internalType": "string",
          "name": "_name",
          "type": "string"
        },
        {
          "internalType": "string",
          "name": "_symbol",
          "type": "string"
        }
      ],
      "stateMutability": "nonpayable",
      "type": "constructor"
    },
    {
      "anonymous": false,
      "inputs": [
        {
          "indexed": true,
          "internalType": "address",
          "name": "owner",
          "type": "address"
        },
        {
          "indexed": true,
          "internalType": "address",
          "name": "approved",
          "type": "address"
        },
        {
          "indexed": true,
          "internalType": "uint256",
          "name": "tokenId",
          "type": "uint256"
        }
      ],
      "name": "Approval",
      "type": "event"
    },
    {
      "anonymous": false,
      "inputs": [
        {
          "indexed": true,
          "internalType": "address",
          "name": "owner",
          "type": "address"
        },
        {
          "indexed": true,
          "internalType": "address",
          "name": "operator",
          "type": "address"
        },
        {
          "indexed": false,
          "internalType": "bool",
          "name": "approved",
          "type": "bool"
        }
      ],
      "name": "ApprovalForAll",
      "type": "event"
    },
    {
      "anonymous": false,
      "inputs": [
        {
          "indexed": true,
          "internalType": "address",
          "name": "from",
          "type": "address"
        },
        {
          "indexed": true,
          "internalType": "address",
          "name": "to",
          "type": "address"
        },
        {
          "indexed": true,
          "internalType": "uint256",
          "name": "tokenId",
          "type": "uint256"
        }
      ],
      "name": "Transfer",
      "type": "event"
    },
    {
      "inputs": [
        {
          "internalType": "address",
          "name": "to",
          "type": "address"
        },
        {
          "internalType": "uint256",
          "name": "tokenId",
          "type": "uint256"
        }
      ],
      "name": "approve",
      "outputs": [],
      "stateMutability": "nonpayable",
      "type": "function"
    },
    {
      "inputs": [
        {
          "internalType": "address",
          "name": "owner",
          "type": "address"
        }
      ],
      "name": "balanceOf",
      "outputs": [
        {
          "internalType": "uint256",
          "name": "",
          "type": "uint256"
        }
      ],
      "stateMutability": "view",
      "type": "function"
    },
    {
      "inputs": [
        {
          "internalType": "uint256",
          "name": "tokenId",
          "type": "uint256"
        }
      ],
      "name": "getApproved",
      "outputs": [
        {
          "internalType": "address",
          "name": "",
          "type": "address"
        }
      ],
      "stateMutability": "view",
      "type": "function"
    },
    {
      "inputs": [
        {
          "internalType": "address",
          "name": "owner",
          "type": "address"
        },
        {
          "internalType": "address",
          "name": "operator",
          "type": "address"
        }
      ],
      "name": "isApprovedForAll",
      "outputs": [
        {
          "internalType": "bool",
          "name": "",
          "type": "bool"
        }
      ],
      "stateMutability": "view",
      "type": "function"
    },
    {
      "inputs": [
        {
          "internalType": "address",
          "name": "_to",
          "type": "address"
        }
      ],
      "name": "mintTo",
      "outputs": [],
      "stateMutability": "nonpayable",
      "type": "function"
    },
    {
      "inputs": [],
      "name": "name",
      "outputs": [
        {
          "internalType": "string",
          "name": "",
          "type": "string"
        }
      ],
      "stateMutability": "view",
      "type": "function"
    },
    {
      "inputs": [
        {
          "internalType": "uint256",
          "name": "tokenId",
          "type": "uint256"
        }
      ],
      "name": "ownerOf",
      "outputs": [
        {
          "internalType": "address",
          "name": "",
          "type": "address"
        }
      ],
      "stateMutability": "view",
      "type": "function"
    },
    {
      "inputs": [
        {
          "internalType": "address",
          "name": "from",
          "type": "address"
        },
        {
          "internalType": "address",
          "name": "to",
          "type": "address"
        },
        {
          "internalType": "uint256",
          "name": "tokenId",
          "type": "uint256"
        }
      ],
      "name": "safeTransferFrom",
      "outputs": [],
      "stateMutability": "nonpayable",
      "type": "function"
    },
    {
      "inputs": [
        {
          "internalType": "address",
          "name": "from",
          "type": "address"
        },
        {
          "internalType": "address",
          "name": "to",
          "type": "address"
        },
        {
          "internalType": "uint256",
          "name": "tokenId",
          "type": "uint256"
        },
        {
          "internalType": "bytes",
          "name": "data",
          "type": "bytes"
        }
      ],
      "name": "safeTransferFrom",
      "outputs": [],
      "stateMutability": "nonpayable",
      "type": "function"
    },
    {
      "inputs": [
        {
          "internalType": "address",
          "name": "operator",
          "type": "address"
        },
        {
          "internalType": "bool",
          "name": "approved",
          "type": "bool"
        }
      ],
      "name": "setApprovalForAll",
      "outputs": [],
      "stateMutability": "nonpayable",
      "type": "function"
    },
    {
      "inputs": [
        {
          "internalType": "bytes4",
          "name": "interfaceId",
          "type": "bytes4"
        }
      ],
      "name": "supportsInterface",
      "outputs": [
        {
          "internalType": "bool",
          "name": "",
          "type": "bool"
        }
      ],
      "stateMutability": "view",
      "type": "function"
    },
    {
      "inputs": [],
      "name": "symbol",
      "outputs": [
        {
          "internalType": "string",
          "name": "",
          "type": "string"
        }
      ],
      "stateMutability": "view",
      "type": "function"
    },
    {
      "inputs": [
        {
          "internalType": "uint256",
          "name": "tokenId",
          "type": "uint256"
        }
      ],
      "name": "tokenURI",
      "outputs": [
        {
          "internalType": "string",
          "name": "",
          "type": "string"
        }
      ],
      "stateMutability": "view",
      "type": "function"
    },
    {
      "inputs": [
        {
          "internalType": "address",
          "name": "from",
          "type": "address"
        },
        {
          "internalType": "address",
          "name": "to",
          "type": "address"
        },
        {
          "internalType": "uint256",
          "name": "tokenId",
          "type": "uint256"
        }
      ],
      "name": "transferFrom",
      "outputs": [],
      "stateMutability": "nonpayable",
      "type": "function"
    }
  ],
  "bytecode": "0x608060405260006006553480156200001657600080fd5b50604051620028923803806200289283398181016040528101906200003c9190620002c7565b81818160009080519060200190620000569291906200007a565b5080600190805190602001906200006f9291906200007a565b5050505050620003b1565b82805462000088906200037b565b90600052602060002090601f016020900481019282620000ac5760008555620000f8565b82601f10620000c757805160ff1916838001178555620000f8565b82800160010185558215620000f8579182015b82811115620000f7578251825591602001919060010190620000da565b5b5090506200010791906200010b565b5090565b5b80821115620001265760008160009055506001016200010c565b5090565b6000604051905090565b600080fd5b600080fd5b600080fd5b600080fd5b6000601f19601f8301169050919050565b7f4e487b7100000000000000000000000000000000000000000000000000000000600052604160045260246000fd5b620001938262000148565b810181811067ffffffffffffffff82111715620001b557620001b462000159565b5b80604052505050565b6000620001ca6200012a565b9050620001d8828262000188565b919050565b600067ffffffffffffffff821115620001fb57620001fa62000159565b5b620002068262000148565b9050602081019050919050565b60005b838110156200023357808201518184015260208101905062000216565b8381111562000243576000848401525b50505050565b6000620002606200025a84620001dd565b620001be565b9050828152602081018484840111156200027f576200027e62000143565b5b6200028c84828562000213565b509392505050565b600082601f830112620002ac57620002ab6200013e565b5b8151620002be84826020860162000249565b91505092915050565b60008060408385031215620002e157620002e062000134565b5b600083015167ffffffffffffffff81111562000302576200030162000139565b5b620003108582860162000294565b925050602083015167ffffffffffffffff81111562000334576200033362000139565b5b620003428582860162000294565b9150509250929050565b7f4e487b7100000000000000000000000000000000000000000000000000000000600052602260045260246000fd5b600060028204905060018216806200039457607f821691505b60208210811415620003ab57620003aa6200034c565b5b50919050565b6124d180620003c16000396000f3fe608060405234801561001057600080fd5b50600436106100ea5760003560e01c806370a082311161008c578063a22cb46511610066578063a22cb4651461025b578063b88d4fde14610277578063c87b56dd14610293578063e985e9c5146102c3576100ea565b806370a08231146101f1578063755edd171461022157806395d89b411461023d576100ea565b8063095ea7b3116100c8578063095ea7b31461016d57806323b872dd1461018957806342842e0e146101a55780636352211e146101c1576100ea565b806301ffc9a7146100ef57806306fdde031461011f578063081812fc1461013d575b600080fd5b61010960048036038101906101049190611630565b6102f3565b6040516101169190611678565b60405180910390f35b6101276103d5565b604051610134919061172c565b60405180910390f35b61015760048036038101906101529190611784565b610467565b60405161016491906117f2565b60405180910390f35b61018760048036038101906101829190611839565b6104ad565b005b6101a3600480360381019061019e9190611879565b6105c5565b005b6101bf60048036038101906101ba9190611879565b610625565b005b6101db60048036038101906101d69190611784565b610645565b6040516101e891906117f2565b60405180910390f35b61020b600480360381019061020691906118cc565b6106f7565b6040516102189190611908565b60405180910390f35b61023b600480360381019061023691906118cc565b6107af565b005b6102456107d1565b604051610252919061172c565b60405180910390f35b6102756004803603810190610270919061194f565b610863565b005b610291600480360381019061028c9190611ac4565b610879565b005b6102ad60048036038101906102a89190611784565b6108db565b6040516102ba919061172c565b60405180910390f35b6102dd60048036038101906102d89190611b47565b610943565b6040516102ea9190611678565b60405180910390f35b60007f80ac58cd000000000000000000000000000000000000000000000000000000007bffffffffffffffffffffffffffffffffffffffffffffffffffffffff1916827bffffffffffffffffffffffffffffffffffffffffffffffffffffffff191614806103be57507f5b5e139f000000000000000000000000000000000000000000000000000000007bffffffffffffffffffffffffffffffffffffffffffffffffffffffff1916827bffffffffffffffffffffffffffffffffffffffffffffffffffffffff1916145b806103ce57506103cd826109d7565b5b9050919050565b6060600080546103e490611bb6565b80601f016020809104026020016040519081016040528092919081815260200182805461041090611bb6565b801561045d5780601f106104325761010080835404028352916020019161045d565b820191906000526020600020905b81548152906001019060200180831161044057829003601f168201915b5050505050905090565b600061047282610a41565b6004600083815260200190815260200160002060009054906101000a900473ffffffffffffffffffffffffffffffffffffffff169050919050565b60006104b882610645565b90508073ffffffffffffffffffffffffffffffffffffffff168373ffffffffffffffffffffffffffffffffffffffff161415610529576040517f08c379a000000000000000000000000000000000000000000000000000000000815260040161052090611c5a565b60405180910390fd5b8073ffffffffffffffffffffffffffffffffffffffff16610548610a8c565b73ffffffffffffffffffffffffffffffffffffffff161480610577575061057681610571610a8c565b610943565b5b6105b6576040517f08c379a00000000000000000000000000000000000000000000000000000000081526004016105ad90611cec565b60405180910390fd5b6105c08383610a94565b505050565b6105d66105d0610a8c565b82610b4d565b610615576040517f08c379a000000000000000000000000000000000000000000000000000000000815260040161060c90611d7e565b60405180910390fd5b610620838383610be2565b505050565b61064083838360405180602001604052806000815250610879565b505050565b6000806002600084815260200190815260200160002060009054906101000a900473ffffffffffffffffffffffffffffffffffffffff169050600073ffffffffffffffffffffffffffffffffffffffff168173ffffffffffffffffffffffffffffffffffffffff1614156106ee576040517f08c379a00000000000000000000000000000000000000000000000000000000081526004016106e590611dea565b60405180910390fd5b80915050919050565b60008073ffffffffffffffffffffffffffffffffffffffff168273ffffffffffffffffffffffffffffffffffffffff161415610768576040517f08c379a000000000000000000000000000000000000000000000000000000000815260040161075f90611e7c565b60405180910390fd5b600360008373ffffffffffffffffffffffffffffffffffffffff1673ffffffffffffffffffffffffffffffffffffffff168152602001908152602001600020549050919050565b60006107b9610e49565b90506107c58282610e5f565b6107cd611039565b5050565b6060600180546107e090611bb6565b80601f016020809104026020016040519081016040528092919081815260200182805461080c90611bb6565b80156108595780601f1061082e57610100808354040283529160200191610859565b820191906000526020600020905b81548152906001019060200180831161083c57829003601f168201915b5050505050905090565b61087561086e610a8c565b8383611053565b5050565b61088a610884610a8c565b83610b4d565b6108c9576040517f08c379a00000000000000000000000000000000000000000000000000000000081526004016108c090611d7e565b60405180910390fd5b6108d5848484846111c0565b50505050565b60606108e682610a41565b60006108f061121c565b90506000815111610910576040518060200160405280600081525061093b565b8061091a84611233565b60405160200161092b929190611ed8565b6040516020818303038152906040525b915050919050565b6000600560008473ffffffffffffffffffffffffffffffffffffffff1673ffffffffffffffffffffffffffffffffffffffff16815260200190815260200160002060008373ffffffffffffffffffffffffffffffffffffffff1673ffffffffffffffffffffffffffffffffffffffff16815260200190815260200160002060009054906101000a900460ff16905092915050565b60007f01ffc9a7000000000000000000000000000000000000000000000000000000007bffffffffffffffffffffffffffffffffffffffffffffffffffffffff1916827bffffffffffffffffffffffffffffffffffffffffffffffffffffffff1916149050919050565b610a4a81611394565b610a89576040517f08c379a0000000000000000000000000000000000000000000000000000000008152600401610a8090611dea565b60405180910390fd5b50565b600033905090565b816004600083815260200190815260200160002060006101000a81548173ffffffffffffffffffffffffffffffffffffffff021916908373ffffffffffffffffffffffffffffffffffffffff160217905550808273ffffffffffffffffffffffffffffffffffffffff16610b0783610645565b73ffffffffffffffffffffffffffffffffffffffff167f8c5be1e5ebec7d5bd14f71427d1e84f3dd0314c0f7b2291e5b200ac8c7c3b92560405160405180910390a45050565b600080610b5983610645565b90508073ffffffffffffffffffffffffffffffffffffffff168473ffffffffffffffffffffffffffffffffffffffff161480610b9b5750610b9a8185610943565b5b80610bd957508373ffffffffffffffffffffffffffffffffffffffff16610bc184610467565b73ffffffffffffffffffffffffffffffffffffffff16145b91505092915050565b8273ffffffffffffffffffffffffffffffffffffffff16610c0282610645565b73ffffffffffffffffffffffffffffffffffffffff1614610c58576040517f08c379a0000000000000000000000000000000000000000000000000000000008152600401610c4f90611f6e565b60405180910390fd5b600073ffffffffffffffffffffffffffffffffffffffff168273ffffffffffffffffffffffffffffffffffffffff161415610cc8576040517f08c379a0000000000000000000000000000000000000000000000000000000008152600401610cbf90612000565b60405180910390fd5b610cd3838383611400565b610cde600082610a94565b6001600360008573ffffffffffffffffffffffffffffffffffffffff1673ffffffffffffffffffffffffffffffffffffffff1681526020019081526020016000206000828254610d2e919061204f565b925050819055506001600360008473ffffffffffffffffffffffffffffffffffffffff1673ffffffffffffffffffffffffffffffffffffffff1681526020019081526020016000206000828254610d859190612083565b92505081905550816002600083815260200190815260200160002060006101000a81548173ffffffffffffffffffffffffffffffffffffffff021916908373ffffffffffffffffffffffffffffffffffffffff160217905550808273ffffffffffffffffffffffffffffffffffffffff168473ffffffffffffffffffffffffffffffffffffffff167fddf252ad1be2c89b69c2b068fc378daa952ba7f163c4a11628f55a4df523b3ef60405160405180910390a4610e44838383611405565b505050565b60006001600654610e5a9190612083565b905090565b600073ffffffffffffffffffffffffffffffffffffffff168273ffffffffffffffffffffffffffffffffffffffff161415610ecf576040517f08c379a0000000000000000000000000000000000000000000000000000000008152600401610ec690612125565b60405180910390fd5b610ed881611394565b15610f18576040517f08c379a0000000000000000000000000000000000000000000000000000000008152600401610f0f90612191565b60405180910390fd5b610f2460008383611400565b6001600360008473ffffffffffffffffffffffffffffffffffffffff1673ffffffffffffffffffffffffffffffffffffffff1681526020019081526020016000206000828254610f749190612083565b92505081905550816002600083815260200190815260200160002060006101000a81548173ffffffffffffffffffffffffffffffffffffffff021916908373ffffffffffffffffffffffffffffffffffffffff160217905550808273ffffffffffffffffffffffffffffffffffffffff16600073ffffffffffffffffffffffffffffffffffffffff167fddf252ad1be2c89b69c2b068fc378daa952ba7f163c4a11628f55a4df523b3ef60405160405180910390a461103560008383611405565b5050565b6006600081548092919061104c906121b1565b9190505550565b8173ffffffffffffffffffffffffffffffffffffffff168373ffffffffffffffffffffffffffffffffffffffff1614156110c2576040517f08c379a00000000000000000000000000000000000000000000000000000000081526004016110b990612246565b60405180910390fd5b80600560008573ffffffffffffffffffffffffffffffffffffffff1673ffffffffffffffffffffffffffffffffffffffff16815260200190815260200160002060008473ffffffffffffffffffffffffffffffffffffffff1673ffffffffffffffffffffffffffffffffffffffff16815260200190815260200160002060006101000a81548160ff0219169083151502179055508173ffffffffffffffffffffffffffffffffffffffff168373ffffffffffffffffffffffffffffffffffffffff167f17307eab39ab6107e8899845ad3d59bd9653f200f220920489ca2b5937696c31836040516111b39190611678565b60405180910390a3505050565b6111cb848484610be2565b6111d78484848461140a565b611216576040517f08c379a000000000000000000000000000000000000000000000000000000000815260040161120d906122d8565b60405180910390fd5b50505050565b606060405180602001604052806000815250905090565b6060600082141561127b576040518060400160405280600181526020017f3000000000000000000000000000000000000000000000000000000000000000815250905061138f565b600082905060005b600082146112ad578080611296906121b1565b915050600a826112a69190612327565b9150611283565b60008167ffffffffffffffff8111156112c9576112c8611999565b5b6040519080825280601f01601f1916602001820160405280156112fb5781602001600182028036833780820191505090505b5090505b6000851461138857600182611314919061204f565b9150600a856113239190612358565b603061132f9190612083565b60f81b81838151811061134557611344612389565b5b60200101907effffffffffffffffffffffffffffffffffffffffffffffffffffffffffffff1916908160001a905350600a856113819190612327565b94506112ff565b8093505050505b919050565b60008073ffffffffffffffffffffffffffffffffffffffff166002600084815260200190815260200160002060009054906101000a900473ffffffffffffffffffffffffffffffffffffffff1673ffffffffffffffffffffffffffffffffffffffff1614159050919050565b505050565b505050565b600061142b8473ffffffffffffffffffffffffffffffffffffffff166115a1565b15611594578373ffffffffffffffffffffffffffffffffffffffff1663150b7a02611454610a8c565b8786866040518563ffffffff1660e01b8152600401611476949392919061240d565b602060405180830381600087803b15801561149057600080fd5b505af19250505080156114c157506040513d601f19601f820116820180604052508101906114be919061246e565b60015b611544573d80600081146114f1576040519150601f19603f3d011682016040523d82523d6000602084013e6114f6565b606091505b5060008151141561153c576040517f08c379a0000000000000000000000000000000000000000000000000000000008152600401611533906122d8565b60405180910390fd5b805181602001fd5b63150b7a0260e01b7bffffffffffffffffffffffffffffffffffffffffffffffffffffffff1916817bffffffffffffffffffffffffffffffffffffffffffffffffffffffff191614915050611599565b600190505b949350505050565b6000808273ffffffffffffffffffffffffffffffffffffffff163b119050919050565b6000604051905090565b600080fd5b600080fd5b60007fffffffff0000000000000000000000000000000000000000000000000000000082169050919050565b61160d816115d8565b811461161857600080fd5b50565b60008135905061162a81611604565b92915050565b600060208284031215611646576116456115ce565b5b60006116548482850161161b565b91505092915050565b60008115159050919050565b6116728161165d565b82525050565b600060208201905061168d6000830184611669565b92915050565b600081519050919050565b600082825260208201905092915050565b60005b838110156116cd5780820151818401526020810190506116b2565b838111156116dc576000848401525b50505050565b6000601f19601f8301169050919050565b60006116fe82611693565b611708818561169e565b93506117188185602086016116af565b611721816116e2565b840191505092915050565b6000602082019050818103600083015261174681846116f3565b905092915050565b6000819050919050565b6117618161174e565b811461176c57600080fd5b50565b60008135905061177e81611758565b92915050565b60006020828403121561179a576117996115ce565b5b60006117a88482850161176f565b91505092915050565b600073ffffffffffffffffffffffffffffffffffffffff82169050919050565b60006117dc826117b1565b9050919050565b6117ec816117d1565b82525050565b600060208201905061180760008301846117e3565b92915050565b611816816117d1565b811461182157600080fd5b50565b6000813590506118338161180d565b92915050565b600080604083850312156118505761184f6115ce565b5b600061185e85828601611824565b925050602061186f8582860161176f565b9150509250929050565b600080600060608486031215611892576118916115ce565b5b60006118a086828701611824565b93505060206118b186828701611824565b92505060406118c28682870161176f565b9150509250925092565b6000602082840312156118e2576118e16115ce565b5b60006118f084828501611824565b91505092915050565b6119028161174e565b82525050565b600060208201905061191d60008301846118f9565b92915050565b61192c8161165d565b811461193757600080fd5b50565b60008135905061194981611923565b92915050565b60008060408385031215611966576119656115ce565b5b600061197485828601611824565b92505060206119858582860161193a565b9150509250929050565b600080fd5b600080fd5b7f4e487b7100000000000000000000000000000000000000000000000000000000600052604160045260246000fd5b6119d1826116e2565b810181811067ffffffffffffffff821117156119f0576119ef611999565b5b80604052505050565b6000611a036115c4565b9050611a0f82826119c8565b919050565b600067ffffffffffffffff821115611a2f57611a2e611999565b5b611a38826116e2565b9050602081019050919050565b82818337600083830152505050565b6000611a67611a6284611a14565b6119f9565b905082815260208101848484011115611a8357611a82611994565b5b611a8e848285611a45565b509392505050565b600082601f830112611aab57611aaa61198f565b5b8135611abb848260208601611a54565b91505092915050565b60008060008060808587031215611ade57611add6115ce565b5b6000611aec87828801611824565b9450506020611afd87828801611824565b9350506040611b0e8782880161176f565b925050606085013567ffffffffffffffff811115611b2f57611b2e6115d3565b5b611b3b87828801611a96565b91505092959194509250565b60008060408385031215611b5e57611b5d6115ce565b5b6000611b6c85828601611824565b9250506020611b7d85828601611824565b9150509250929050565b7f4e487b7100000000000000000000000000000000000000000000000000000000600052602260045260246000fd5b60006002820490506001821680611bce57607f821691505b60208210811415611be257611be1611b87565b5b50919050565b7f4552433732313a20617070726f76616c20746f2063757272656e74206f776e6560008201527f7200000000000000000000000000000000000000000000000000000000000000602082015250565b6000611c4460218361169e565b9150611c4f82611be8565b604082019050919050565b60006020820190508181036000830152611c7381611c37565b9050919050565b7f4552433732313a20617070726f76652063616c6c6572206973206e6f7420746f60008201527f6b656e206f776e6572206e6f7220617070726f76656420666f7220616c6c0000602082015250565b6000611cd6603e8361169e565b9150611ce182611c7a565b604082019050919050565b60006020820190508181036000830152611d0581611cc9565b9050919050565b7f4552433732313a2063616c6c6572206973206e6f7420746f6b656e206f776e6560008201527f72206e6f7220617070726f766564000000000000000000000000000000000000602082015250565b6000611d68602e8361169e565b9150611d7382611d0c565b604082019050919050565b60006020820190508181036000830152611d9781611d5b565b9050919050565b7f4552433732313a20696e76616c696420746f6b656e2049440000000000000000600082015250565b6000611dd460188361169e565b9150611ddf82611d9e565b602082019050919050565b60006020820190508181036000830152611e0381611dc7565b9050919050565b7f4552433732313a2061646472657373207a65726f206973206e6f74206120766160008201527f6c6964206f776e65720000000000000000000000000000000000000000000000602082015250565b6000611e6660298361169e565b9150611e7182611e0a565b604082019050919050565b60006020820190508181036000830152611e9581611e59565b9050919050565b600081905092915050565b6000611eb282611693565b611ebc8185611e9c565b9350611ecc8185602086016116af565b80840191505092915050565b6000611ee48285611ea7565b9150611ef08284611ea7565b91508190509392505050565b7f4552433732313a207472616e736665722066726f6d20696e636f72726563742060008201527f6f776e6572000000000000000000000000000000000000000000000000000000602082015250565b6000611f5860258361169e565b9150611f6382611efc565b604082019050919050565b60006020820190508181036000830152611f8781611f4b565b9050919050565b7f4552433732313a207472616e7366657220746f20746865207a65726f2061646460008201527f7265737300000000000000000000000000000000000000000000000000000000602082015250565b6000611fea60248361169e565b9150611ff582611f8e565b604082019050919050565b6000602082019050818103600083015261201981611fdd565b9050919050565b7f4e487b7100000000000000000000000000000000000000000000000000000000600052601160045260246000fd5b600061205a8261174e565b91506120658361174e565b92508282101561207857612077612020565b5b828203905092915050565b600061208e8261174e565b91506120998361174e565b9250827fffffffffffffffffffffffffffffffffffffffffffffffffffffffffffffffff038211156120ce576120cd612020565b5b828201905092915050565b7f4552433732313a206d696e7420746f20746865207a65726f2061646472657373600082015250565b600061210f60208361169e565b915061211a826120d9565b602082019050919050565b6000602082019050818103600083015261213e81612102565b9050919050565b7f4552433732313a20746f6b656e20616c7265616479206d696e74656400000000600082015250565b600061217b601c8361169e565b915061218682612145565b602082019050919050565b600060208201905081810360008301526121aa8161216e565b9050919050565b60006121bc8261174e565b91507fffffffffffffffffffffffffffffffffffffffffffffffffffffffffffffffff8214156121ef576121ee612020565b5b600182019050919050565b7f4552433732313a20617070726f766520746f2063616c6c657200000000000000600082015250565b600061223060198361169e565b915061223b826121fa565b602082019050919050565b6000602082019050818103600083015261225f81612223565b9050919050565b7f4552433732313a207472616e7366657220746f206e6f6e20455243373231526560008201527f63656976657220696d706c656d656e7465720000000000000000000000000000602082015250565b60006122c260328361169e565b91506122cd82612266565b604082019050919050565b600060208201905081810360008301526122f1816122b5565b9050919050565b7f4e487b7100000000000000000000000000000000000000000000000000000000600052601260045260246000fd5b60006123328261174e565b915061233d8361174e565b92508261234d5761234c6122f8565b5b828204905092915050565b60006123638261174e565b915061236e8361174e565b92508261237e5761237d6122f8565b5b828206905092915050565b7f4e487b7100000000000000000000000000000000000000000000000000000000600052603260045260246000fd5b600081519050919050565b600082825260208201905092915050565b60006123df826123b8565b6123e981856123c3565b93506123f98185602086016116af565b612402816116e2565b840191505092915050565b600060808201905061242260008301876117e3565b61242f60208301866117e3565b61243c60408301856118f9565b818103606083015261244e81846123d4565b905095945050505050565b60008151905061246881611604565b92915050565b600060208284031215612484576124836115ce565b5b600061249284828501612459565b9150509291505056fea26469706673582212204370a6c156214566b9bcf1ea4ef9274db6217e18ba3be00a0750617bd172192864736f6c63430008090033",
  "linkReferences": {},
  "deployedLinkReferences": {}
}